:1000000012C019C018C017C016C015C014C013C044
:1000100012C011C010C00FC00EC00DC00CC00BC06C
:100020000AC009C008C011241FBECFE5D4E0DEBF5E
:10003000CDBF02D026C0E4CF81B3816081BB81B344
:10004000826081BB82B3816082BB82B38D7F82BBC1
:100050002FE38DE093E0215080409040E1F700C015
:10006000000082B3826082BB82B38E7F82BB2FE3AB
:100070008DE093E0215080409040E1F700C0000007
:06008000E1CFF894FFCF70
:00000001FF
