:1000000012C019C018C017C016C015C014C013C044
:1000100012C011C010C00FC00EC00DC00CC00BC06C
:100020000AC009C008C011241FBECFE5D4E0DEBF5E
:10003000CDBF02D03EC0E4CF81B3816081BB81B32C
:10004000826081BB82B38E7F82BB82B38D7F82BB95
:100050002FE38DE093E0215080409040E1F700C015
:10006000000082B3816082BB2FE38DE093E02150DA
:1000700080409040E1F700C0000082B38E7F82BBD9
:1000800082B3826082BB2FE38DE093E021508040F9
:100090009040E1F700C0000082B3816082BB2FE393
:1000A0008DE093E0215080409040E1F700C00000D7
:0600B000C9CFF894FFCF58
:00000001FF
